:020000040800F2
:1000000030050020D5000008E52200088320000804
:1000100000000000000000000000000000000000E0
:100020000000000000000000000000006323000842
:1000300000000000000000006123000865230008A4
:100040000501000805010008050100080501000878
:1000500005010008B10100080501000805010008BC
:100060000501000805010008050100080501000858
:100070000501000805010008050100080501000848
:100080000501000800000000000000000501000854
:100090000000000005010008050100080501000836
:1000A0000000000005010008050100080501000826
:1000B0000501000800000000A1010008050100087A
:1000C0000348854600F05AF800480047C925000853
:1000D000300500200C4880F308880C480168090EA0
:1000E0000B4A914205D10B480B4901600B480C4962
:1000F00001600C4880470C480047FEE7FEE7FEE73A
:10010000FEE7FEE7FEE700003005002004000000E7
:100110001F00000018100240010000000000014014
:1001200000000000F1230008C100000830B50B46B4
:10013000014600202022012409E00D46D5409D42C1
:1001400005D31D469540491B254695404019154647
:10015000521E002DF1DC30BDD2B201E00270401C15
:10016000491EFBD270470022F6E710B513460A4637
:1001700004461946FFF7F0FF204610BD064C012546
:10018000064E05E0E36807CC2B430C3C984710343F
:10019000B442F7D3FFF798FFAC260008CC2600083E
:1001A00010B5024800F09EFB10BD00007C0000204E
:1001B00010B5022000F086FE10BD7047F8B5044669
:1001C0000D4600260020009001210907A06B8842FF
:1001D00015D0A06B012812D0A06B02280FD0A06B05
:1001E00003280CD0A06B042809D0A06B052806D0EA
:1001F000A06B062803D0A06B072800D000BF00BF6B
:100200004020005D012801D10220F8BD01214020DD
:10021000015500BF2068806804210840800800283C
:100220007ED14D496868884264D02068806A2A7807
:100230000121914008432168886201210907A06BD0
:10024000884229D0A06B012826D0A06B022823D099
:10025000A06B032820D0A06B04281DD0A06B05281C
:100260001AD0A06B062817D0A06B072814D0A86856
:10027000216849694907490F88420DD020684069C3
:10028000C008C0002168486120684069297A490790
:10029000490F0843216848612868102805D028685C
:1002A000112802D0286812284FD12C48806829686C
:1002B000102901D1C90407E02968112902D10121BF
:1002C000890501E00121090608432449886028685E
:1002D00010283AD1224923480068FFF727FF0A2156
:1002E0004843009002E00098401E009000980028CB
:1002F000F9D12AE02068816A2A7801209040814360
:10030000206881622868102805D02868112802D04A
:100310002868122819D1114880682968102900E03E
:100320000EE001D1C90407E02968112902D1012199
:10033000890501E00121090688430849886004E035
:10034000606C202108436064012600BF002140202A
:10035000015500BF304658E701100000002701405A
:1003600040420F002C00002070B5044600260025F6
:10037000002C01D1012070BD606C002806D1A06462
:10038000002140200155204600F0CEF8606C10217D
:10039000084000287ED1002EFCD12068806804210E
:1003A000084080080028F5D1606C8901884302214B
:1003B00008436064206880688007800F01280DD1A1
:1003C00020680068C007C00F002805D12068C068F9
:1003D00089030840884201D1012000E00020002864
:1003E0000FD12068C06818218843A168084321689C
:1003F000C86020680069800080086168084321683F
:1004000008612068C068464908402168C860A06942
:100410008003E169C9030843216A49030843616B0A
:10042000012902D00121090300E000210843E1680D
:1004300008432169022901D1042100E00021084379
:10044000216B490008430543606A01280ED1206AE8
:10045000002803D101200004054307E0606C20213F
:1004600008436064A06C01210843A064FF21C231ED
:10047000A06A884203D0E16AA06A08430543206865
:10048000C06828432168C86001210907A06B884221
:1004900016D000E03DE0A06B012811D0A06B02282F
:1004A0000ED0A06B03280BD0A06B042808D0A06B43
:1004B000052805D0A06B062802D0A06B07280DD117
:1004C00020684069C008C000216848612068406910
:1004D000218F4907490F0843216848612068C06897
:1004E00010490840A84208D10020A064606C022195
:1004F000884301210843606410E0606C0221884356
:10050000102108436064A06C01210843A064012607
:1005100004E0606C102108436064012630462AE73D
:100520001902FEFFE7FF3F8310B586B00446142191
:1005300001A8FFF718FE17492068884227D100BF9D
:100540001548806949150843134988610846806940
:1005500049150840009000BF00BF00BF0E48406929
:10056000090208430C4948610846406901214904D1
:100570000840009000BF00BF40200190032002907F
:100580000020039001A90920C00600F0ABFC06B0D2
:1005900010BD00000024014000100240FFB581B0F2
:1005A00004460D462020005D009020688368A868FE
:1005B000002800D100E000BF0098012802D0009878
:1005C00002287DD1012080061840002809D1012091
:1005D000C0061840002804D1012000071840002858
:1005E00073D0032000061840010E022907D9606A63
:1005F0000126F60530436062012005B0F0BD012000
:100600008840049E3060A868002809D128884005E9
:10061000EE6830432668FF3681360F01F0510AE05C
:100620006868C000AE683043EE6830432668FF3625
:1006300081360F01F0512E692068FF3081300F01A3
:10064000C0194660287D01280ED12068FF30813016
:100650000E0180194068FF26013630432668FF36B8
:1006600081360F01F6197060D0790006967936044C
:100670003043567936023043167930432668FF36C8
:1006800081360F01F619F060D078000696783604AE
:100690003043567836023043167830432668FF36AA
:1006A00081360F01F619B0602068FF3081300E01ED
:1006B0008659012006432068FF3081300F0101E098
:1006C0000AE002E0C651002097E7606A012676053D
:1006D00030436062012090E7606A0126B60430432F
:1006E0006062012089E7704710B50246002020248F
:1006F000A35C012B01D0022B0AD1002904D114687C
:10070000E468A007800F03E014682469A007800F45
:1007100010BD70B504462020055D012D01D0022DCD
:100720007DD100290CD12068C0688007800F002887
:1007300013D1606A0126760530436062012070BDE6
:10074000206800698007800F002806D1606A0126B2
:100750007605304360620120F1E72068FF30B13058
:100760000E0180590426304090609068002807D11F
:100770002068FF30B1300E018059400D106006E056
:100780002068FF30B1300E018059C00850602068E9
:10079000FF30B1300E018059022630404008D06051
:1007A0002068FF30B1300E01801940680007000F4B
:1007B00010612068FF30B1300E0180194068FF26BB
:1007C00036023040000A90612068FF30B1300E01DF
:1007D00080194068000C50612068FF30B1300E0174
:1007E0008019806818702068FF30B1300E018019C0
:1007F0008068FF2636023040000A58702068FF30BB
:10080000B1300E0180198068FF2636043040000C9C
:1008100098702068FF30B1300E01801900E038E098
:100820008068000ED8702068FF30B1300E0180194A
:10083000C06818712068FF30B1300E018019C0689F
:10084000FF2636023040000A58712068FF30B13070
:100850000E018019C068FF2636043040000C9871E4
:100860002068FF30B1300E018019C068000ED871C9
:10087000002906D12068C068202630432668F06031
:1008800005E020680069202630432668306100209A
:1008900055E7606A0126B6043043606201204EE7E6
:1008A00010B50146002020235A5C012A01D0022AFB
:1008B00017D10B689B680124A4062340002B00D0AD
:1008C000401C0B689B680124E4062340002B00D0E9
:1008D000401C0B689B68012424072340002B00D098
:1008E000401C10BDF0B585B004460025206846695F
:1008F000206840680390206887682068C06802907C
:10090000206800690190206880690090F007C00F9E
:1009100000286DD0F807C00F00281DD001202168E5
:10092000886002203840002803D0204600F093FA67
:1009300012E004203840002803D00120C002054303
:100940000AE008203840002803D0012000030543B6
:1009500002E0204600F07EFAFF20013038400028F7
:1009600020D0FF20013021688860400038400028F6
:1009700003D0204600F071FA14E0012080023840D4
:10098000002803D00120400305430BE00120C002F2
:100990003840002803D001208003054302E02046B0
:1009A00000F05AFA012000043840002820D001202D
:1009B00000042168886040003840002803D02046A9
:1009C00000F04DFA14E0012080043840002803D0E4
:1009D0000120C00305430BE00120C004384000287B
:1009E00003D001200004054302E0204600F036FA5F
:1009F00008203040002809D0102102980840002823
:100A000004D04801054310202168C860042030400C
:100A100000280AD0082102980840002805D00820A4
:100A20002168C860204600F0DFF90220304000282D
:100A300008D02068C0688007800F002802D02046B8
:100A400000F0D3F940203040002809D0102101984F
:100A50000840002804D0880105431020216808615F
:100A60002020304000280AD00821019808400028A2
:100A700005D0082021680861204600F0B7F9102051
:100A80003040002808D0206800698007800F0028C7
:100A900002D0204600F0ABF901204004304000288D
:100AA0000AD0102103980840002805D010202168A2
:100AB0004860204600F09CF90120000430400028E6
:100AC0000AD0082103980840002805D00820216892
:100AD0004860204600F0F4F90120C00330400028AF
:100AE00060D0042103980840002858D08801304085
:100AF000002806D00098C007C00F002801D00120B0
:100B00000543012040023040002806D00221009811
:100B10000840002801D00220054301208002304017
:100B2000002806D0042100980840002801D00420A5
:100B300005430120C0023040002830D070210098C9
:100B4000084000282BD000980840402815D006DC2B
:100B5000102809D020280AD0302818D10AE05028BF
:100B60000ED0602813D10EE00820054310E01020BD
:100B700005430DE0202005430AE04020054307E03F
:100B80008020054304E0FF200130054300E000BF62
:100B900000BF206880697021884321688861042033
:100BA00021684860002D05D0606A284360622046B5
:100BB000FFF799FD05B0F0BD70B50446002C01D1DA
:100BC000012070BD2020005D002802D1204600F0E9
:100BD000C3F820680068022188432168086000F09B
:100BE00077FA05460EE000F073FA401B0A2809D98F
:100BF000606A0121490408436062052120200155F3
:100C00000120DEE720684068022108400028EAD180
:100C100020680068012108432168086000F058FA44
:100C200005460EE000F054FA401B0A2809D9606A14
:100C3000012149040843606205212020015501205B
:100C4000BFE720684068C007C00F0028EAD0207EB8
:100C5000012806D1206800688021084321680860C7
:100C600005E0206800688021884321680860607E74
:100C7000012806D1206800684021084321680860E7
:100C800005E0206800684021884321680860A07E54
:100C9000012806D1206800682021084321680860E7
:100CA00005E0206800682021884321680860E07E14
:100CB000012806D120680068102188432168086057
:100CC00005E0206800681021084321680860207F43
:100CD000012806D1206800680821084321680860BF
:100CE00005E0206800680821884321680860607F6B
:100CF000012806D1206800680421084321680860A3
:100D000005E0206800680421884321680860E168E4
:100D1000A068084321690843616908436168491E66
:100D200008432168C861002060620121202001552C
:100D3000002046E730B5024600202024A35C012BAA
:100D400001D0022B07D11468A4688D062C408D06B3
:100D5000AC4200D0012030BD10B586B0044614214D
:100D600001A8FFF700FA1E492068884236D100BF6B
:100D70001C48C0690121490608431A49C861084650
:100D8000C069012149060840009000BF00BF00BFB4
:100D900014484069091208431249486108464069ED
:100DA000012149040840009000BF00BF0320C00299
:100DB0000190022002900020039003200490042060
:100DC000059001A90920C00600F08CF80022114608
:100DD0001E2000F001FB1E2000F0F2FA06B010BD4C
:100DE0000064004000100240704770477047704731
:100DF000704770B504462020005D012823D10221F0
:100E000020200155206800684008400021680860E3
:100E100000F05EF905460EE000F05AF9401B0A2882
:100E200009D9606A01214904084360620521202034
:100E30000155012070BD20684068C007C00F002820
:100E4000EAD16062F6E7606A0121C9040843606282
:100E50000120EFE770477047704770477047704751
:100E600018B5014600200090144B2020425C012A56
:100E700001D0022A1AD1086800680224A0430C6835
:100E8000206000BF0098401C00900098984206D94E
:100E9000486A0124640420434862012018BD0868A0
:100EA0004068022420400028ECD1F7E7486A01247A
:100EB000A404204348620120F0E7000040420F00F4
:100EC0007047704710B50446054840692040002827
:100ED00004D0034844612046FFF7F3FF10BD000033
:100EE0000004014078B50346002200240020D9E028
:100EF000012696400D6835402C46002C7ED04D686A
:100F0000022D02D04D68122D15D1D508AE001D4618
:100F10002035A8595507EE0E0F25B5400646AE43BD
:100F200030465607F60E0D69B5402843D508AD008A
:100F30001E4620367051186856000325B5400646F7
:100F4000AE4330460D79AD07AD0F5600B54028438E
:100F500018604D68012D08D04D68022D05D04D68F0
:100F6000112D02D04D68122D18D198685600032516
:100F7000B5400646AE4330465600CD68B5402843DE
:100F800098605868012595400646AE4330461026C5
:100F90004D6835402D09954028435860D868560063
:100FA0000325B5400646AE43304656008D68B54031
:100FB0002843D860012636074D683540B54270D1C8
:100FC00000BF3B4DAD6901263543394EB56135460D
:100FD000AD69ED07ED0F009500BF00BF354D9608D8
:100FE000B600A85995072E0F0F25B5400646AE430B
:100FF00030460925ED06AB4203D100E051E0002563
:101000000AE02D4DAB4201D1012505E02B4DAB424D
:1010100001D1022500E005259607360FB54028438B
:10102000244D9608B600A851254D28680546A543CD
:101030002846012636044D683540B54202D10546A2
:10104000254328461E4D286068680546A543284666
:10105000012676044D683540B54202D10546254348
:101060002846174D6860A8680546A543284601260E
:1010700036054D683540B54202D105462543284620
:101080000F4DA860E8680546A54328460126760569
:101090004D683540B54202D1054625432846084DE6
:1010A000E860521C0D68D540002D00D020E778BDC7
:1010B00000100240080001400004004800080048F9
:1010C00000040140002A01D0816100E08162704784
:1010D00001480068704700002800002002464120B7
:1010E000805C20282FD100BF4020805C012801D1E6
:1010F0000220704701234020835400BF2423412055
:101100008354106800684008400013681860106835
:10111000006801231B039843136818601068006877
:1011200008431368186010680068012318431368A7
:10113000186020234120835400BF002340208354A3
:1011400000BF0020D5E70220D3E710B502460B46CA
:1011500000214120805C20282ED100BF4020805CEF
:10116000012801D1022010BD01244020845400BF79
:10117000242441208454106800684008400014680A
:101180002060106801680F2424020846A04301462D
:1011900018020143106801601068006801242043B0
:1011A0001468206020244120845400BF0024402083
:1011B000845400BF0020D6E70220D4E710B50446CF
:1011C000002C01D1012010BD4120005D002805D177
:1011D000002140200155204600F05AF824214120EA
:1011E00001552068006840084000216808600F2110
:1011F00009066068884321680861206880680121C9
:10120000C903884321688860E068012806D101216C
:10121000C903A06808432168886005E0212189028C
:10122000A068084321688860E068022802D1800233
:101230002168486020684068144908432168486074
:101240002068C0680121C90388432168C8606169BA
:1012500020690843A169090208432168C860216A1E
:10126000E06908432168086020680068012108439C
:101270002168086000206064202141200155002081
:10128000206300214220015500209CE700800002DD
:1012900010B586B00446142101A8FEF764FF1A4970
:1012A000206888422DD100BF184840690121890576
:1012B00008431649486108464069012189050840EC
:1012C000009000BF00BF0320019012200290012077
:1012D0000390032004900120059001A90C48FFF71A
:1012E00001FE00BF0948C0690121490508430749BB
:1012F000C8610846C069012149050840009000BF47
:1013000000BF06B010BD00000054004000100240B5
:101310000014004802480068401C014908607047FA
:101320002800002010B50648006810210843044931
:101330000860002000F006F800F018F8002010BD4A
:101340000020024070B5044600F0FCF906467D21FD
:10135000C900FEF7EBFE054600F072FD00222146B3
:10136000501E00F039F8002070BD000008B500BF25
:1013700011488069012108430F4988610846806946
:10138000C007C00F009000BF00BF00BF0846C06983
:10139000090408430849C8610846C06909040840AF
:1013A000009000BF00BF00BF044800681021084340
:1013B0000249086000BF08BD001002400000014063
:1013C00000BFC206D20E01219140024A116000BF47
:1013D0007047000000E100E070B504460D46164677
:1013E0002946204600F080FF70BD0000F8B5044695
:1013F00000260025012109042068084088427AD18E
:1014000000275948C0690903084000280DD100BFD2
:101410005548C06908435449C8610846C069090471
:101420000840009000BF00BF012750480068FF211E
:1014300001310840002816D14C48006808434B4948
:101440000860FFF745FE064606E0FFF741FE801BF9
:10145000642801D90320F8BD44480068FF21013108
:1014600008400028F1D04048006A032109020840E2
:101470000546002D2DD060680840A84229D03A4882
:10148000006A884305463848006A01210904084378
:10149000354908620846006A012109048843324937
:1014A000086208460562E807C00F002811D0FFF760
:1014B0000FFE064607E0FFF70BFE801B2C49884213
:1014C00001D90320C7E72848006A02210840002804
:1014D000F1D02548006A0321090288436168084366
:1014E00021490862012F05D10846C06909048843D3
:1014F0001D49C86100BF2078C007C00F002807D071
:101500001948006B80088000A168084316490863E9
:10151000202120680840202807D11348006B1021A3
:101520008843E168084310490863012149042068A1
:101530000840884207D10C48006B802188436169CC
:10154000084309490863012189022068084088424C
:1015500007D10548006B40218843216908430249AF
:101560000863002077E70000001002400070004090
:101570008813000070B504460D4600266C480068CC
:10158000C007C00FA8420ED269480068400840005A
:1015900028436749086008460068C007C00FA84292
:1015A00001D0012070BD022120680840022807D127
:1015B00060484068F0218843A16808435D4948605D
:1015C0002078C007C00F00287ED06068012808D1AD
:1015D00058480068012149040840002821D1012011
:1015E000E0E76068022808D15248006801214906F6
:1015F0000840002815D10120D4E76068032808D1ED
:101600004C48406B012109040840002809D1012001
:10161000C8E74848006802210840002801D101209D
:10162000C0E7444840688008800061680843414939
:101630004860FFF74DFD0646606801280FD107E0BE
:10164000FFF746FD801B3C49884201D90320A9E7EA
:10165000384840680C2108400428F1D134E0606823
:1016600002280FD107E0FFF733FD801B3249884283
:1016700001D9032096E72F4840680C21084008282C
:10168000F1D121E0606803280FD107E0FFF720FDCA
:10169000801B2949884201D9032083E725484068F7
:1016A0000C2108400C28F1D10EE007E0FFF710FDF7
:1016B000801B2149884201D9032073E71D484068F7
:1016C0000C2108400028F1D119480068C007C00F5C
:1016D000A8420ED916480068400840002843144923
:1016E000086008460068C007C00FA84201D001206A
:1016F00058E7042120680840042808D10D484068B4
:10170000072109028843E16808430A49486000F05C
:101710001FF808494968F02211400909074A515C3D
:10172000C840074908600020FFF70CFE002039E799
:101730000020024000100240881300009426000898
:101740002C00002001480068704700002C00002099
:10175000F0B589B02FA001460EC9C06805AC0EC413
:10176000089030A001460EC9C06801AC0EC40490B8
:101770000024002600270025002000902D48446802
:101780000C20204000283DD0042804D0082805D093
:101790000C2836D132E02848009036E00F20800433
:1017A0002040800C05A90D5C2248C06A0007000F8C
:1017B00001A90E5C0320C0032040012109048842D6
:1017C00006D131461C48FEF7B1FC6843074613E0DA
:1017D0000320C00320400321C903884206D13146BB
:1017E0001648FEF7A3FC6843074605E03146124859
:1017F000FEF79CFC68430746009706E00F48009000
:1018000003E000BF0C48009000BF00BF009809B083
:10181000F0BD000002030405060708090A0B0C0DC1
:101820000E0F10100102030405060708090A0B0C2D
:101830000D0E0F100010024000127A00006CDC0246
:10184000F8B5044600252078C007C00F002872D0E4
:10185000FA4840680C21084004280CD0F74840683A
:101860000840082813D1F548406849030840012181
:10187000090488420BD1F14800680121490408405D
:1018800000286BD06068002868D10120F8BD00BF37
:101890006068012807D1E94800680121090408436C
:1018A000E649086031E0606800280ED1E34800682E
:1018B000012109048843E1490860084600680121C4
:1018C00089048843DD4908601FE0606805280ED15F
:1018D000DA480068012189040843D84908600846AD
:1018E0000068012109040843D44908600DE0D34889
:1018F0000068012109048843D0490860084600684F
:10190000012189048843CD49086000BF6068002830
:1019100012D0FFF7DDFB054606E0FFF7D9FB401BC1
:10192000642801D90320B1E7C448006801214904B3
:1019300008400028F1D011E0FFF7CAFB054606E099
:10194000FFF7C6FB401B642801D903209EE7BB4874
:1019500000680121490408400028F1D102212068D3
:101960000840022862D1B54840680C210840002890
:101970000CD0B2484068084008281CD1AF484068E5
:10198000490308400121C903884214D1AB480068CB
:1019900002210840002804D0E068012801D001207D
:1019A00074E7A6480068F82188432169C900084304
:1019B000A24908603AE0E068002820D09F4800680B
:1019C000012108439D490860FFF782FB054606E0B8
:1019D000FFF77EFB401B022801D9032056E79748FA
:1019E0000068022108400028F2D094480068F821DD
:1019F00088432169C90008439049086016E08F4870
:101A00000068400840008D490860FFF761FB05460B
:101A100006E0FFF75DFB401B022801D9032035E7F4
:101A200086480068022108400028F2D10821206879
:101A30000840082831D1E069002817D07F48406A63
:101A4000012108437D494862FFF742FB054606E055
:101A5000FFF73EFB401B022801D9032016E7774819
:101A6000406A022108400028F2D016E07348406A1C
:101A70004008400071494862FFF72AFB054606E02E
:101A8000FFF726FB401B022801D90320FEE66B4826
:101A9000406A022108400028F2D104212068084051
:101AA000042871D100266548C069890608400028CD
:101AB0000DD100BF6148C06908436049C86108464C
:101AC000C06909040840009000BF00BF01265C48BF
:101AD0000068FF2101310840002816D158480068ED
:101AE000084357490860FFF7F3FA054606E0FFF799
:101AF000EFFA401B642801D90320C7E6504800686C
:101B0000FF21013108400028F1D000BFA068012862
:101B100006D14A48006A01210843484908622BE07F
:101B2000A06800280CD14548006A4008400043499D
:101B300008620846006A04218843404908621BE0A5
:101B4000A06805280CD13D48006A042108433B49A0
:101B500008620846006A01210843384908620BE020
:101B60003648006A40084000344908620846006A66
:101B7000042188433149086200BFA068002813D0BF
:101B8000FFF7A6FA054608E029E0FFF7A1FA401B97
:101B90002C49884201D9032078E62848006A0221AE
:101BA00008400028F1D011E0FFF792FA054607E05F
:101BB000FFF78EFA401B2349884201D9032065E6CE
:101BC0001E48006A022108400028F1D1012E05D1EB
:101BD0001A48C069310788431849C86100BF1021FD
:101BE0002068084010285FD1606901282CD1134873
:101BF000406B04210843114948630846406B0121AA
:101C000008430E494863FFF763FA054606E0FFF70D
:101C10005FFA401B022801D9032037E60748406BD2
:101C2000022108400028F2D00448406BF821884384
:101C3000A169C90008430149486335E0001002402A
:101C400000700040881300006069401D00280FD11B
:101C50007A48406B04218843784948630846406BC2
:101C6000F8218843A169C9000843744948631BE00F
:101C70007248406B04210843704948630846406B32
:101C8000400840004863FFF723FA054606E0FFF7E7
:101C90001FFA401B022801D90320F7E56748406B73
:101CA000022108400028F2D1202120680840202885
:101CB00052D1624840680C2108400C280AD05F4885
:101CC00040680840082811D15C4840684903084032
:101CD00088420BD15948406B012109040840002873
:101CE0003AD0206A012837D00120CFE5206A0028A9
:101CF00019D05248406B0121090408434F494863F9
:101D0000FFF7E6F9054606E0FFF7E2F9401B022877
:101D100001D90320BAE54948406B01210904084074
:101D20000028F1D018E04548406B012109048843A0
:101D300042494863FFF7CCF9054606E0FFF7C8F9CA
:101D4000401B022801D90320A0E53C48406B01213B
:101D5000090408400028F1D1606A00286CD0374897
:101D600040680C210840082864D0606A022847D1E6
:101D70003248006801210906884330490860FFF7AE
:101D8000A7F9054606E0FFF7A3F9401B022801D991
:101D900003207BE529480068012149060840002806
:101DA000F1D100BF2548C06A00090001216B08433A
:101DB0002249C862A16AE06A0843204949687B2237
:101DC000D203914308431D49486000BF084600689C
:101DD00001210906084319490860FFF779F905460A
:101DE00006E0FFF775F9401B022801D903204DE5F5
:101DF000124800680121490608400028F1D01BE084
:101E00000E4800680121090688430C490860FFF765
:101E10005FF9054606E0FFF75BF9401B022801D990
:101E2000032033E5054800680121490608400028E1
:101E3000F1D101E0012029E5002027E50010024052
:101E400070B504462546681E0949884201D901201B
:101E50000CE0681E074948610321081F00F044FA9E
:101E600000200449886107200861002070BD00003F
:101E7000FFFFFF0000E000E0024600BF3C20805C66
:101E8000012801D10220704701233C20835400BF68
:101E900002233D20835410684068702398431368E0
:101EA0005860106840680B681843136858601068E1
:101EB00080688023984313689860106880684B6836
:101EC00018431368986001233D20835400BF00230A
:101ED0003C20835400BF0020D5E710B50446002CF9
:101EE00001D1012010BD3D20005D002805D1002159
:101EF0003C200155204600F00DF802213D200155FF
:101F0000211D206800F0AEFA01213D20015500207E
:101F1000E8E7000008B5094A016891420DD100BF09
:101F200007498969D2141143054A916111468969AB
:101F3000D2141140009100BF00BF08BD002C014029
:101F400000100240F8B504460D46002600BF3C20B4
:101F5000005D012801D10220F8BD01213C2001557E
:101F600000BF02213D200155206886687721304658
:101F700088430646FF21090230468843064620680A
:101F80008660286850283ED00CDC202863D004DC12
:101F9000002856D0102868D158E0302860D040285A
:101FA00063D144E0602838D070280DD001210903A6
:101FB000401A02D0401A58D117E020688068C00843
:101FC000C0002168886051E0EB686A68A9682068F1
:101FD00000F098FA206886687721304688430646E4
:101FE000772006432068866040E0EB686A68A9684D
:101FF000206800F087FA206880680121890308437F
:102000002168886032E0EA686968206800F096FA22
:102010005021206800F085FA28E0EA6869682068A5
:1020200000F0A7FA6021206800F07BFA1EE0EA6861
:102030006968206800F082FA4021206800F071FA97
:1020400014E00021206800F06CFA0FE010212068F5
:1020500000F067FA0AE02021206800F062FA05E04B
:102060003021206800F05DFA00E000BF00BF0121D0
:102070003D20015500BF00213C20015500BF00203C
:102080006AE700BFFEE700000EB500200090019057
:10209000029018481849086000204860002116483E
:1020A0008160C160012101610421416100218161E0
:1020B000C16101624162816201218902C162002124
:1020C000016301214163FEF74FF9002801D0FEF7BB
:1020D00074F8062000900120000301900004029093
:1020E00069460548FEF76AF8002801D0FEF765F852
:1020F0000EBD0000002401403000002010B50E4845
:102100000E4908601020486081060C48816000215B
:10211000C160016141610121017600214176012107
:102120008176C17601774177FEF746FD002801D020
:10213000FEF743F810BD0000006400407C00002062
:1021400000B587B0142102A8FEF70DF800BF2E4895
:1021500040690121890508432B49486108464069C7
:10216000012189050840019000BF00BF00BF26483B
:1021700040694911084324494861084640690121E2
:1021800049040840019000BF00BF00BF1E484069DD
:10219000490008431C4948610846406901218904F7
:1021A0000840019000BF00BF002207210920C0069F
:1021B000FEF788FF07200290012003900020049082
:1021C000059002A90920C006FEF78CFEB8200290F7
:1021D00000200390049002A90920C006FEF782FEA9
:1021E00002200290094803900020049002A90848A8
:1021F000FEF778FE002211460520FFF7EDF80520D6
:10220000FFF7DEF807B000BD00100240000011101B
:102210000004004810B5134813490860134848608B
:102220000021114881600121C160002101614161EB
:102230008161C1610162FEF7C1FF002801D0FDF795
:10224000BCFF00210848FEF749FF002801D0FDF738
:10225000B4FF00210448FEF778FF002801D0FDF705
:10226000ACFF10BD00540040A40000200E09002067
:1022700000B587B00020039004900590069001906F
:102280000290164816490860002048600021144852
:1022900081607D218901C16000210161416181610D
:1022A000FFF71BFE002801D0FDF787FF0120000388
:1022B000039003A90A48FFF745FE002801D0FDF767
:1022C0007CFF00200190029001A90548FFF7D4FD92
:1022D000002801D0FDF771FF07B000BD002C0140C0
:1022E000F00000207047000010B5002819DA1A4AE3
:1022F00003071B0F083B9B089B00D2588307DC0E8B
:10230000FF23A3409A438B071B0E8407E40EA340D0
:102310001A43114B0407240F083CA408A4001A51C7
:1023200018E00E4A03231B02D21883089B00D258E0
:102330008307DC0EFF23A3409A438B071B0E840701
:10234000E40EA3401A43054B032424021B198408FE
:10235000A4001A5110BD00001CED00E000E100E0F7
:102360007047704710B5FEF7D5FF10BD00B597B0A8
:1023700034210AA8FDF7F7FE002006900790089088
:10238000099018216846FDF7EEFE12200A90012000
:102390000D900F9010200E9010900220139081034A
:1023A0001491C1041591002116910AA8FFF748FA6B
:1023B000002801D0FDF701FF0720069002200790BA
:1023C000002008900990012106A8FFF7D3F8002803
:1023D00001D0FDF7F2FE2020009000200390684617
:1023E000FFF704F8002801D0FDF7E7FE17B000BDA5
:1023F00019480068012108431749086008464068E9
:1024000016490840144948600846006814490840C5
:1024100011490860084600680121890488430E4973
:102420000860084640683F21090488430A4948601B
:102430000846C06A00090001C8620846006BFF2117
:10244000D4318843044908630846406B4008400083
:102450004863002088607047001002400CB8FF08F5
:10246000FFFFF6FE10B500220268214B984206D00D
:1024700001239B07984202D01E4B984205D170243D
:102480001346A3431A464B681A43194B98420FD080
:1024900001239B0798420BD0164B984208D0164B4D
:1024A000984205D0154B984202D0154B984206D160
:1024B000032424021346A3431A46CB681A438024FC
:1024C0001346A3434C6923431A4602608B68C362D8
:1024D0000B688362064B984205D0084B984202D0A5
:1024E000074B984201D10B6903630123436110BD7F
:1024F000002C014000040040002000400044014046
:102500000048014070B50C4600218168FF26360264
:102510000D46B54329461D021543254329438160D5
:1025200070BD10B50A460021816870240B46A34394
:102530001946072313431943816010BD70B50B463C
:10254000144600210022026A056A6D086D000562CA
:102550008169F0260D46B5432946250129430A26FF
:102560001546B5432A4615461D432A468161026237
:1025700070BD70B50B46144600210022056A102676
:10258000B54305628169026A0F2636030D46B543DD
:10259000294625032943A0261546B5432A461D0191
:1025A0002A438161026270BD02E008C8121F08C19F
:1025B000002AFAD170477047002001E001C1121FC4
:1025C000002AFBD17047000090B0FEF7ABFEFFF78A
:1025D000CDFEFFF7B5FDFFF791FDFFF71BFEFFF7FF
:1025E00053FDFFF745FEF7200A9000200B900C905A
:1025F0000D9003200E90012008A90877F720039082
:102600000020049005900690032007901E48089033
:10261000012009900020019002900122114609201A
:10262000C006FEF74FFD012202210920C006FEF779
:1026300049FD012204210920C006FEF743FD13488D
:10264000FEF7D7FB1148FEF70BFC1CE000210F48FA
:10265000FEF74AF8022805D201AB03AA00210B4875
:10266000FEF757F803210948FEF764FB08490860A4
:102670000648FEF715F9002805D06B4601AA0AA9FD
:102680000248FDF78BFFE1E7FFFF00007C00002020
:102690000000002000000000000000000102030410
:1026A000060708090000000001020304CC26000808
:1026B0000000002030000000A8250008FC260008CB
:1026C0003000002000050000B825000800000000D0
:1026D00000000000000000000000000000000000FA
:1026E00000000000000000000000000000000000EA
:0C26F000000000000000000000127A0052
:04000005080000C12E
:00000001FF
